:100000000C9446000C945D000C945D000C945D0013
:100010000C945D000C945D000C945D000C945D00EC
:100020000C945D000C945D000C945D000C945D00DC
:100030000C945D000C945D000C945D000C945D00CC
:100040000C945D000C945D000C945D000C945D00BC
:100050000C945D000C945D000C945D000C945D00AC
:100060000C945D000C945D000C945D000C945D009C
:100070000C945D000C945D000C945D000C945D008C
:100080000C945D000C945D000C945D0011241FBE67
:10009000CFEFD0E4DEBFCDBF11E0A0E0B1E0E4E7F8
:1000A000F1E000E00BBF02C007900D92AE30B10747
:1000B000D9F70E9470000C94B8000C940000CF9304
:1000C000C82F8A3019F48DE00E945F009091C00023
:1000D00095FFFCCFC093C60080E090E0CF910895DB
:1000E00011B88FEF82B987B918B890E080B1482F66
:1000F0004F778F70282F30E0B9016150710962305D
:10010000710500F16250710962307105E8F06250CA
:10011000710962307105D0F0625071096230710569
:10012000B8F08930B9F06350710962307105A0F000
:100130008C30A1F02D5031092230310588F08F30FC
:1001400091F410C090E20FC090E30DC098E30BC093
:100150009CE309C09CE307C09EE305C09EE303C087
:100160009FE301C09FE3453008F4906498B9BECF87
:04017000F894FFCF31
:0E01740000000002000000005F00000000001C
:00000001FF
