:100000000C9446000C945D000C945D000C945D0013
:100010000C945D000C945D000C945D000C945D00EC
:100020000C945D000C945D000C945D000C945D00DC
:100030000C945D000C945D000C945D000C945D00CC
:100040000C945D000C945D000C945D000C945D00BC
:100050000C945D000C945D000C945D000C945D00AC
:100060000C945D000C945D000C945D000C945D009C
:100070000C945D000C945D000C945D000C945D008C
:100080000C945D000C945D000C945D0011241FBE67
:10009000CFEFD0E4DEBFCDBF11E0A0E0B1E0E6E4F9
:1000A000F1E000E00BBF02C007900D92AE30B10747
:1000B000D9F70E9470000C94A1000C940000CF931B
:1000C000C82F8A3019F48DE00E945F009091C00023
:1000D00095FFFCCFC093C60080E090E0CF910895DB
:1000E00011B88FEF82B987B918B890E080B18F70DE
:1000F0002FEF280F223098F0833099F02BEF280F44
:10010000223088F029EF280F233078F026EF280FCF
:10011000233068F08D3069F08F3071F40CC090E2BC
:100120000BC090E309C098E307C09CE305C09EE3C1
:1001300003C09FE301C09FE3853008F4906498B941
:06014000D5CFF894FFCFBB
:0E01460000000002000000005F00000000004A
:00000001FF
